:03000000020800F3
:0C080000787FE4F6D8FD758119020847E6
:1009D000020E0001021400010210000102160001C3
:1009E000021200010218000102080000020A0000C1
:0409F000020C0000F5
:100A0F00758901758CFC758A66D28C308DFDC28C10
:030A1F00C28D2263
:1009F500E4F50AF50B120A0F050BE50B7002050A63
:0A0A0500C394E8E50A940340EC22D4
:10088C0012098D1209471208F4D3E5099400E50802
:10089C00648094804004C2A08002D2A0E4F50AF5E2
:1008AC000BAE08AF097C017D2C120A22C3E50B9F0D
:1008BC00E50A9E502CE4F50CF50D120A0F12098D69
:1008CC001209471208F4050DE50D7002050CC394CE
:1008DC00E8E50C940340E3050BE50B70C4050A80B6
:0808EC00C0E4F508F50980984D
:10098D00208007E4F50EF50F8006750E00750F013A
:10099D00E515650F7004E514650E60047F01800296
:1009AD007F00E50F6401450E70047E0180027E001C
:1009BD00EF5E60080509E50970020508850E1485CE
:0309CD000F1522E1
:10094700208107E4F510F511800675100075110177
:10095700E51765117004E516651060047F018002D4
:100967007F00E5116401451070047E0180027E005E
:10097700EF5E600B74022509F509E43508F5088573
:0609870010168511172275
:1008F400208207E4F512F5138006751200751301C2
:10090400E51965137004E518651260047F0180021F
:100914007F00E5136401451270047E0180027E00AD
:10092400EF5E601874FE2509F50974FF3508F508B3
:10093400C3648094805005E4F508F5098512188590
:0309440013192262
:10080C0002088CE493A3F8E493A34003F68001F26E
:10081C0008DFF48029E493A3F85407240CC8C333ED
:10082C00C4540F4420C8834004F456800146F6DFBC
:10083C00E4800B01020408102040809009D0E47E73
:10084C00019360BCA3FF543F30E509541FFEE493B1
:10085C00A360010ECF54C025E060A840B8E493A378
:10086C00FAE493A3F8E493A3C8C582C8CAC583CAA3
:10087C00F0A3C8C582C8CAC583CADFE9DEE780BE5B
:0109F4000002
:100A2200EF8DF0A4A8F0CF8CF0A428CE8DF0A42EE8
:020A3200FE22A2
:00000001FF
